:020000040800F2
:10000000780A0020290200086D2F0008D127000877
:10001000692F00082104000839460008000000008C
:100020000000000000000000000000001D3100087A
:100030004D040008000000001931000821310008BB
:10004000430200084302000843020008430200087C
:10005000430200084302000843020008430200086C
:10006000430200084302000851040008430200084C
:10007000430200084302000843020008430200084C
:10008000430200084302000843020008430200083C
:10009000430200084302000843020008430200082C
:1000A000430200084302000843020008430200081C
:1000B00043020008E531000843020008430200083B
:1000C00043020008430200084302000843020008FC
:1000D00043020008430200084302000843020008EC
:1000E00043020008430200084302000843020008DC
:1000F00043020008430200084302000843020008CC
:100100004302000843020008F131000843020008DE
:100110004302000843020008FD31000843020008C2
:1001200043020008350400084302000843020008A7
:10013000430200084302000843020008430200088B
:10014000430200084302000843020008430200087B
:100150004302000841040008430200082D4600083D
:10016000430200084302000843020008430200085B
:100170004302000843020008430200080000000098
:10018000430200084302000800F002F800F03CF8C7
:100190000AA090E8000C82448344AAF10107DA45E2
:1001A00001D100F031F8AFF2090EBAE80F0013F0F8
:1001B000010F18BFFB1A43F0010318477C5E0000D3
:1001C0009C5E0000103A24BF78C878C1FAD8520764
:1001D00024BF30C830C144BF04680C6070470000C1
:1001E0000023002400250026103A28BF78C1FBD840
:1001F000520728BF30C148BF0B6070471FB505F0DC
:10020000F2FE1FBD10B510BD00F0D0F81146FFF78B
:10021000F5FF04F067FA00F0EEF803B4FFF7F2FF21
:1002200003BC00F0F5F80000094880470948004782
:10023000FEE7FEE7FEE7FEE7FEE7FEE7FEE7FEE796
:10024000FEE7FEE704480549054A064B70470000F3
:10025000D13100088901000878040020780A0020C4
:10026000780600207806002053EA020C00F069802E
:100270002DE9F04B4FF00006002B1FBFB3FA83F5BA
:1002800003FA05F424FA05F65E4012BF1643B2FAEB
:1002900082F502FA05F4C5F120051EBF22FA05FC1D
:1002A00044EA0C04203556EA044C4FEA144418BFC3
:1002B000641C4FF000084FF00009904271EB030CF2
:1002C00039D3002919BFB1FA81F701FA07F6B0FA5C
:1002D00080F700FA07F6C7F120071EBF20FA07FCD7
:1002E00046EA0C062037B6FBF4FCA7EB0507103FE7
:1002F00007F01F0BCBF120062CFA06F60CFA0BFBCD
:1003000044BFB3460026202FA4BF5E464FF0000B2B
:100310005BEA060C08BF4FF0010B19EB0B0948EB29
:100320000608ABFB027C06FB02CC0BFB03CCC01B1C
:1003300071EB0C01C1E70B46024641464846BDE859
:10034000F08B13B5084318BF4FF0FF300146AFF3F1
:100350000080BDE81C4070474FF0000200B5134616
:1003600094469646203922BFA0E80C50A0E80C50D5
:10037000B1F12001BFF4F7AF090728BFA0E80C5086
:1003800048BF0CC05DF804EB890028BF40F8042B7F
:1003900008BF704748BF20F8022B11F0804F18BFEC
:1003A00000F8012B7047704770477047754600F0A2
:1003B0002BF8AE4605006946534620F007008546F7
:1003C00018B020B5FFF73EFFBDE820404FF0000613
:1003D0004FF000074FF000084FF0000BAC46ACE8C0
:1003E000C009ACE8C009ACE8C009ACE8C00921F01C
:1003F00007018D46704710B50446AFF300802046D4
:10040000BDE81040FFF709BF004870471800002002
:1004100001491820ABBEFEE726000200704700002D
:10042000FEE7000040F2EC11C2F2000109684863E7
:100430007047000040F2E400C2F2000000F06EB825
:1004400040F24410C2F2000000F068B870470000AB
:10045000102000F015BA0000EFF3108072B600BF54
:10046000FEE7000070B5866D044600F0FFFA94F8D0
:10047000351002292ED105462068216C026822F031
:1004800016020260426922F08002426109B9A16C41
:1004900019B1016821F008010160016821F0010132
:1004A00001600068C00708D000F0E0FA401B052892
:1004B00018D820680068C007F6D1E06D3F2101FA26
:1004C00000F0B060012084F835000020002184F89D
:1004D000341070BD802060650120002184F8341044
:1004E00070BD00BF20206065032084F83500002126
:1004F00084F8341070BD000090F83510022909D13D
:10050000052180F835100068016821F001010160C3
:10051000002070478021416501207047F0B581B00F
:1005200004460020009040F21000C2F20000026871
:10053000D4E9166048F2B51337680821C1F64E3386
:1005400081403942A2FB03250CD0226813685B0767
:1005500008D5136823F004031360B160616D41F0A6
:100560000101616501218140394208D02268526948
:10057000120604D5B160616D41F00201616504218C
:100580008140394208D022681268920704D5B160D0
:10059000616D41F00401616510218140394217D03D
:1005A00020680268120713D5B1600268016852031F
:1005B00008D4C90508D4016821F008010160216C44
:1005C00021B905E008033FD4216C09B120468847D2
:1005D000E16D202000FA01F23A4241D02068036820
:1005E000DB063DD5B26094F835300268052B1BD18F
:1005F00022F016020260426922F080024261226CFF
:100600000AB9A26C1AB1026822F0080202603F2007
:100610008840B060012084F83500216D0020002959
:1006200084F8340052D157E00168520310D4C90550
:1006300012D4016821F010010160012084F8350016
:10064000002084F8340007E0A16C0029BED1BFE788
:10065000080301D4616C00E0E16B09B120468847D2
:10066000606DC8B3606DC0072ED0052084F83500DA
:100670002068A90A026822F001020260009A013291
:100680008A4200921AD80268D20717D0009A013223
:100690008A42009212D80268D2070FD0009A013223
:1006A0008A4200920AD80268D20707D0009A013223
:1006B0008A42009202D80268D207DFD1012084F872
:1006C0003500002084F83400E16C29B1204601B0E7
:1006D000BDE8F040084700BF01B0F0BD2DE9F04192
:1006E000044600F0C3F9002C4ED00546022084F8E1
:1006F00035000020216884F83400086820F00100EB
:1007000008600868C00708D000F0B0F9401B052851
:100710006CD821680868C007F6D1086848F23F0223
:10072000CFF21002D4E90135024004F10C0E9EE82C
:10073000C1511A432A4310433043384340EA08006A
:10074000626A40EA0C00042A40EA0E0320D1D4E990
:100750000A5E206B4EEA0302104308604869BEF14E
:10076000000F20F0030040EA050040F0040C15D013
:10077000B8F5005F42D0B8F1000F51D1022D52D030
:10078000012D47D055B94EE00120BDE8F08100BFF2
:100790000B60486920F0070040EA020C6FF00F0080
:1007A0004AF6AB2250FA81F0CAF6AA22A0FB022335
:1007B0001A0946F21803C0F600039A5C40F2FF33B0
:1007C0005F284FF03F00C1F814C021EA030100FA8E
:1007D00002F088BF0431C4E91612886000230122A8
:1007E0000020636584F83520BDE8F08103222023D2
:1007F0000320636584F83520BDE8F081032DCDD852
:10080000012240230120DFE805F0030E030500BFAD
:10081000E7E700BFAEF1C070B0FA80F0400904E035
:10082000032D04D3BAD1CEF300600028B6D0012244
:1008300040230120636584F83520BDE8F081000085
:10084000B0B5044600F012F9054640F20800C2F2C5
:1008500000000078611C18BF044400BF00F006F9D6
:10086000401BA042FAD3B0BD102818BF704740F219
:10087000CC00C2F200000188013101807047000005
:1008800043F61441C4F201010A68024214BF086031
:100890007047FFF7E9BF00002DE9F04F82B000F18B
:1008A0003E4241F6004502F1FF77C4F202050822FC
:1008B0004FEAB726A84208BF0722072E38BF4FEAE3
:1008C000B7224FF0010A002400274FF000080092E1
:1008D00008E000BF023708F10108202F04F10404EA
:1008E00000F0B4800E680AFA08F916EA090FF1D090
:1008F000D1F804A00AF0030BABF10106012E17D8C2
:100900000322866802FA07FECA6826EA0E06BA4083
:10091000324382604268CAF3001522EA090205FAEE
:1009200008F54FEA480C6FEA0E062A4342600BE0D6
:100930000322BA40D643BBF1030FBC4604D1BC46E8
:100940004FF0030B22E000BFC2688D68324005FA09
:100950000CF52A43BBF1020FC26017D16FF00302FE
:1009600002EA5802024404F01C030F25D2F820E0EA
:1009700005FA03FA0D692EEA0A0E05FA03F343EAB3
:100980000E031362D1F804A00AF0030B02680BFAFD
:100990000CF332401A431AF4403F4FF0010A026050
:1009A00098D0002243F644030192C4F202031A686D
:1009B00043F6004E42F480421A601A68C4F2010EF7
:1009C00002F480420192019A28F003024FF6084C8B
:1009D0007244CFF6FF7C52F80C3004F00C060F2561
:1009E000B540AB43009D05FA06F6334342F80C30A0
:1009F000DEF808204B6842EA090643F60C4CDD029B
:100A000058BF22EA0906CEF80860C4F2010CDCF8EF
:100A100000209D0242EA090658BF22EA0906CCF8E6
:100A20000060DEF804209D0342EA090658BF22EA6E
:100A30000906CEF80460DEF80020DB0342EA09066E
:100A400058BF22EA0906CEF8006043E702B0BDE8CD
:100A5000F08F00000069084018BF012070470000B7
:100A6000002A08BF090481617047000040F270400D
:100A7000C2F200000068704740F2080040F2704186
:100A8000C2F20000C2F2000100780A681044086057
:100A90007047000080B543F60040C4F202000168D0
:100AA00041F400710160016841F4806101600168F6
:100AB00041F480710160032000F084F80F2000F001
:100AC00005F800F027F8002080BD000070B540F266
:100AD0000806C2F2000640F210013278C2F20001AC
:100AE0004FF47A730968B3FBF2F20446B1FBF2F1FA
:100AF000084600F041FB0F2C4FF0010508D838B92B
:100B00004FF0FF3021460022002500F02FF87460DE
:100B1000284670BD82B0002043F640010190C4F227
:100B200002014A6842F480424A604A6802F4804204
:100B30000192019A0090086840F0805008600868AF
:100B400000F080500090009802B07047002848BF25
:100B5000704700F01F01012202FA01F14EF200126B
:100B60004009CEF2000242F82010704710B54EF650
:100B70000C5CCEF2000CDCF80030C3F3022E8EF0D9
:100B80000704042C28BF0424BEF103034FF0FF3EEA
:100B90000EFA04F438BF0023A14399400EFA03F380
:100BA0009A43114300F00F02043A624409010C32E7
:100BB00000F16043B0F1FF3FC8BF03F5644211701C
:100BC00010BD00004EF60C51CEF200010A684FF63F
:100BD000FF031A4060F30A2242F0806040F0FD708B
:100BE000086070472DE9F041002800F08B8043F643
:100BF0000808C4F202080446D8F8F8030D4600F0CD
:100C00000700884207D288F8F853D8F8F80300F0B4
:100C10000700A84276D12068810717D5410705D57E
:100C2000D8F8001041F4E051C8F80010010705D5CC
:100C3000D8F8001041F46041C8F80010D8F800104E
:100C4000A26821F0F0011143C8F80010C0073FD19D
:100C5000D8F8F80300F00700A84207D988F8F8533D
:100C6000D8F8F80300F00700A8424BD120684107EC
:100C700007D5D8F80010E26821F4E0511143C8F814
:100C80000010000708D5D8F80000216920F4604062
:100C900040EAC100C8F8000000F07CF8D8F8001065
:100CA00046F20002C1F30311C0F60002515C40F2AB
:100CB000100220FA01F140F20C00C2F200000068BC
:100CC000C2F200021160FFF701FF0020BDE8F081D1
:100CD0006068811E022907D258F8081C89015CBF90
:100CE0000120BDE8F08111E0012807D158F8081C67
:100CF00089035CBF0120BDE8F08107E058F8081CBB
:100D0000890703D40120BDE8F08100BFD8F80010A6
:100D100021F003010843C8F80000FFF7A7FE0646CC
:100D200041F28837D8F80000616800F00C00B0EBA1
:100D3000810F8DD0FFF79AFE801BB842F2D90320B5
:100D4000BDE8F08140F2100043F60801C2F2000055
:100D5000C4F202010068096846F21002C1F3822160
:100D6000C0F60002515CC8407047000040F210001D
:100D700043F60801C2F20000C4F2020100680968EB
:100D800046F21002C1F34231C0F60002515CC84085
:100D90007047000010B543F60404C4F20204606812
:100DA00000F00C0142F200400829C0F2F40007D024
:100DB000042918BF10BD41F20020C0F27A0010BD16
:100DC000216801F03F02216823684902C3F38811BA
:100DD00006D4A1FB00010023FFF746FA07E000BF9D
:100DE00041F20020C0F27A004843B0FBF2F02168E3
:100DF0000222C1F3014102EB4101B0FBF1F010BD51
:100E00002DE9F04182B000286AD00446007843F60C
:100E10000006C007C4F202060BD0B06800F00C0058
:100E2000042840F0A1803068800302D56068002863
:100E300056D0207880071AD5B06810F00C0F09D072
:100E4000B06800F00C00082840F0A88070684002EC
:100E500000F1A4803068800702D5E06801283FD106
:100E60003068216920F0F80040EAC1003060207845
:100E7000000739D4207840074ED4A5695DB3B06827
:100E800000F00C00082840F0BD80012D28D07068CB
:100E9000E16900F480028A4222D1216A00F03F0217
:100EA0008A421DD147F6C071626A0140B1EB821FD0
:100EB00016D1A26A0023CFF6FF7303EBC23200F40F
:100EC00040316FF30F0291420AD1E16A00F0706085
:100ED000B0EB016F04D1002002B0BDE8F08100BF8B
:100EE000012002B0BDE8F0816069002840F20000F6
:100EF000C4F2472076D00121C0F8801EFFF7B6FD6E
:100F0000054600BF706F8007B4D4FFF7AFFD401BEC
:100F10000228F7D9DDE000BF306C10F080580AD10C
:100F200000200190306C40F080503064306C00F054
:100F300080500190019847F20007C4F2000738681A
:100F4000C00541D4386840F480703860FFF78EFDEA
:100F5000054600BF3868C00536D4FFF787FD401B43
:100F60000228F7D9B5E000BFB06800F00C000828EF
:100F700003D1706840023FF556AF6068B0F5803F1E
:100F800007D0B0F5A02F40F08D80306840F480206D
:100F90003060306840F4803030608DE0E0680028D8
:100FA00052D00020C4F2472001210160FFF75EFD0E
:100FB000054600BF306880073FF552AFFFF756FD8A
:100FC000401B0228F6D984E0A068012805D0052836
:100FD0004ED1306F40F004003067306F40F00100B8
:100FE00030674FE00021C0F8801EFFF73FFD054647
:100FF000706F80077FF53EAFFFF738FD401B02287A
:10100000F6D966E00027C4F2472700203866FFF7CC
:101010002DFD022D05460BD1306880015ED5FFF70E
:1010200025FD401B02284FF00300F5D954E700BF0F
:10103000306880017FF54FAFFFF718FD401B022895
:101040004FF00300F4D947E70020C4F24720002105
:101050000160FFF70BFD0546306880077FF507AF9D
:10106000FFF704FD401B02284FF00300F4D933E7DB
:10107000316F002821F001013167316F21F0040147
:1010800031674DD0FFF7F2FC054641F2883700BFCB
:10109000306F800756D4FFF7E9FC401BB842F7D900
:1010A00017E000BF3168002821F4803131603168D9
:1010B00021F4802131604FD0FFF7D8FC054600BFF6
:1010C000306880033FF5B5AEFFF7D0FC401B6428C5
:1010D000F6D9032002B0BDE8F08100BF04F11C0581
:1010E0002FCD08430021CFF6FF7140EA821001EBBB
:1010F000C3316FF30F0140EA0560084370600120BF
:101100003866FFF7B3FC0446306880013FF5E3AE74
:10111000FFF7ACFC001B02284FF00300F4D9DBE61C
:10112000FFF7A4FC054641F2883700BF306F800707
:1011300008D5FFF79BFC401BB8424FF00300F5D9E0
:10114000CAE600BFB8F1000F7FF497AE306C20F014
:101150008050306491E600BFFFF788FC054600BF71
:10116000306880037FF565AEFFF780FC401B642884
:101170004FF00300F4D9AFE6411E0020B0EB116F31
:101180001CBF012070474EF21002CEF200025160E7
:101190004EF62351CEF20001F0230B700721906030
:1011A00011607047704700007047000010B590F85C
:1011B0003C20012A4FF0020251D080F83D20026805
:1011C000D2F804E0D2F808C00C682EF07003234374
:1011D00041F2FF74C4F20004A24253600EDC40F2FC
:1011E000FF73C4F200039A4216DCB2F1804F2BD099
:1011F00040F20043C4F2000324E000BF40F2FF339A
:10120000C4F201039A4213DC41F60003C4F2000366
:101210009A4219D0002313E040F60003C4F2000301
:101220009A4211D040F60043C4F200030AE000BF26
:1012300044F20003C4F201039A4205D040F2004395
:10124000C4F201039A4204D149682CF08003194387
:1012500091600121002280F83D1080F83C2010466A
:1012600010BD0000002804BF0120704710B50446DF
:1012700090F83D0028B9002084F83C00204600F09A
:101280001FF8022084F83D002068211D01F0BCFFFA
:10129000012084F8460084F83E0084F83F0084F87A
:1012A000400084F8410084F8420084F8430084F848
:1012B000440084F8450084F83D00002010BD000083
:1012C00080B582B0006800F140404FEAB0200428A9
:1012D00013D8DFE800F00312152741000020019029
:1012E00043F64000C4F20200016841F001010160D0
:1012F000006800F001000190019802B080BD00BFBD
:101300000020019043F64000C4F20200016841F061
:1013100004010160006800F004000190019802B02F
:1013200080BD00BF0020019043F64000C4F20200DF
:101330000168002241F0080101600068002100F00E
:101340000800019001983220FFF710FC322002B013
:10135000BDE88040FFF7FABB0020019043F6400053
:10136000C4F202000168002241F01001016000682F
:10137000012100F01000019001983620FFF7F6FBE4
:10138000362002B0BDE88040FFF7E0BB90F83D108A
:1013900001291CBF01207047022180F83D10006820
:1013A00041F2FF72C168C4F20002904241F00101B3
:1013B000C1600DDC40F2FF71C4F20001884215DC0F
:1013C000B0F1804F2AD040F20041C4F2000123E086
:1013D00040F2FF31C4F20101884213DC41F6000102
:1013E000C4F20001884219D0002113E040F6000148
:1013F000C4F20001884211D040F60041C4F200015D
:101400000AE000BF44F20001C4F20101884205D0A5
:1014100040F20041C4F20101884206D1816801F026
:101420000701062904BF00207047016841F001014F
:10143000016000207047000080B590F83C20012A30
:101440004FF0020200F0C28080F83D20D0F800C0CA
:101450004FF67772DCF8083023EA0202CCF8082055
:101460000B684F2B28DC1F2B44DD202B45D0302B65
:1014700043D0402B40F0AC80D1F804E0C968DCF8E0
:101480002030DCF8202022F00102CCF82020DCF80B
:10149000182022F0F00242EA011123F00A0242EA87
:1014A0000E02CCF81810CCF82020DCF8081041F01F
:1014B000470121F0300180E06F2B27DDB3F5005F9D
:1014C00048D0B3F5805F7AD0702B40F08180D1E9AD
:1014D00001E3C968DCF8082043EA0E0322F47F42E6
:1014E00043EA01211143CCF80810DCF8081041F060
:1014F000770162E00BB1102B6AD1DCF8081021F003
:101500007001194341F0070157E000BF502B35D05F
:10151000602B5DD1D1F804E0C968DCF8203023F0FD
:101520001003CCF82030DCF81830DCF8202023F44D
:10153000704322F0A00243EA013142EA0E12CCF8D5
:101540001810CCF82020DCF8081041F0670121F0D9
:10155000100132E0D1E901E3C968DCF8082043EA70
:101560000E0322F47F4243EA01211143CCF8081014
:10157000DCF8081041F480411FE000BFD1F804E01E
:10158000C968DCF82030DCF8202022F00102CCF819
:101590002020DCF8182022F0F00242EA011123F0AA
:1015A0000A0242EA0E02CCF81810CCF82020DCF82F
:1015B000081041F0570121F02001CCF8081000225A
:1015C000012180F83D10002180F83C10104680BDBC
:1015D0000122F5E7002804BF012070472DE9F047FC
:1015E000044690F83D000D4628B9002084F83C00E0
:1015F000204600F049F8022084F83D00206844F2BB
:101600000702816891438160211D01F0FDFD206882
:101610004FF6FF7881688269D0F820C0D5E9003E96
:10162000D5E9026A43EA0109AB6922EA080246EAFF
:1016300003234FF6FC46B343D5E9076742EA0A02A3
:1016400029691A4342EA062242EA01112CF0AA0251
:101650006B6942EA0E0241EA073142EA0312C0F81E
:10166000089081610262012084F8460084F83E00FF
:1016700084F83F0084F8420084F8430084F83D0079
:101680000020BDE8F087000080B586B0006840F219
:101690000042C4F2000200219042CDE90411CDE9DC
:1016A0000211019130D00021C4F20101884258D1C9
:1016B000002043F630010090C4F202014A6942F072
:1016C00001024A614A6902F001020092009A009008
:1016D0000A6842F010020A60096801F010010091E6
:1016E00000994FF4206101910221CDE9021004908C
:1016F000012005900020C4F2020000F5805001A9ED
:10170000FFF7CAF806B080BD43F630000091C4F27E
:101710000200026942F002020261026902F0020262
:101720000092009A0091026842F001020260006893
:1017300000F0010000900098C02001900220CDE947
:101740000201CDE904100020C4F2020001A9FFF754
:10175000A3F81D2000210022FFF708FA1D20FFF743
:10176000F5F906B080BD000080B590F83E2090F8F5
:101770003F3090F842E090F843C004290AD0B9B94C
:10178000012A4FF0010208BFBEF1010F34D010460C
:1017900080BD00BF012B4FF0010208BFBCF1010F5B
:1017A000F5D1022180F83F1080F8431000681EE058
:1017B000012A4FF0010208BF012BE8D1BEF1010F51
:1017C000E5D1BCF1010FE2D1022280F83E2080F881
:1017D0003F2080F8422080F8432091B10068016AE0
:1017E00021F001010162016A41F001010162102151
:1017F0006FF0100209E000BF022180F83E1080F86F
:101800004210006801216FF00102036A1A4002626F
:10181000026A114301620168002241F00101016086
:10182000104680BD7047000010B501680446086985
:10183000800744BFC8685FEA807039D408694007F0
:1018400044BFC8685FEA40703ED40869000744BFDF
:10185000C8685FEA007045D40869C00644BFC8681C
:101860005FEAC0604AD40869C0071CBFC8685FEA65
:10187000C07051D10869000644BFC8685FEA0060C3
:1018800052D40869400644BFC8685FEA406053D438
:101890000869800646BFC8685FEA806010BD6FF0C7
:1018A000200220460A61BDE81040FFF77DBC00BF62
:1018B0006FF002000861012020778869800743D01B
:1018C0002046FFF7AFFF45E06FF0040008610220FB
:1018D0002077886910F4407F40D02046FFF7A2FFB0
:1018E00042E000BF6FF00800086104202077C8695B
:1018F00080073DD02046FFF795FF3FE06FF01000D6
:10190000086108202077C86910F4407F3AD020464B
:10191000FFF788FF3CE000BF6FF001000861204640
:1019200000F0F0FB2168A5E76FF080000861204619
:10193000FFF738FC2168A4E76FF0400008612046FB
:1019400000F0E2FB2168A3E7204600F0C1F9204641
:1019500000F04CFB2168002020776FE7204600F064
:10196000B7F9204600F042FB2168002020776CE7A1
:10197000204600F0ADF9204600F038FB2168002039
:10198000207769E7204600F0A3F9204600F02EFBFF
:1019900021680020207766E72DE9F04186B00068D5
:1019A00040F6FF31C4F2000188424FF0000105917A
:1019B000CDE90311CDE9011126DCB0F1804F4DD006
:1019C00040F60001C4F20001884240F0A1800020EE
:1019D00043F630010090C4F202010A6842F00802A6
:1019E0000A60096801F00801009100994FF4704104
:1019F00001910221CDE90210CDE904010020C4F2D9
:101A0000020000F5406080E040F60041C4F20001B1
:101A1000884261D044F20001C4F20101884277D1CA
:101A2000002043F630010090C4F202010A6842F03F
:101A300010020A60096801F010010091009960210C
:101A400001910221CDE902100490032005900020AD
:101A5000C4F2020000F5805057E000BF002643F6B4
:101A600030000096C4F202000168002441F0010138
:101A700001600168C4F2020401F0010100910099C3
:101A8000009601680DF1040841F002010160006850
:101A9000022700F0020000900098012520464146F0
:101AA000CDE90177CDE903670595FEF7F5FE242022
:101AB000CDE9010720464146CDE903660595FEF7CD
:101AC000EBFE4FF40060CDE90107CDE90366059513
:101AD00004F5806019E000BF002043F6300100905B
:101AE000C4F202010A6842F001020A60096801F0CA
:101AF000010100910099012101910221CDE902101B
:101B00000020C4F20200CDE9041101A9FEF7C4FED1
:101B100006B0BDE8F0810000F0B590F83C30012B34
:101B200004BF0220F0BD4FEAB202032A00F2CA80CD
:101B3000DFE802F00234689C026840F20046136A53
:101B400042F4806423F001031362136AD2F804E0C4
:101B5000D2F818C08D6823F00203C4F20106B44223
:101B600043EA050305D1CD6823F00C0325F00405F5
:101B70002B430D68B44207D1D1E905462EF4407ECF
:101B800044EA0E0444EA060E2CF073062E43C2F813
:101B900004E09661496851638DE000BF026840F23D
:101BA0000045136A42F4806423F010031362136A41
:101BB000D2F804E0D2F818C08E6823F02003C4F2F3
:101BC0000105AC4243EA061307D1CE686FF0400727
:101BD00023F0C00307EA061633430E68AC4207D170
:101BE000D1E905542EF4406747EA850747EA840E99
:101BF0002CF4E64747EA0627C2F804E097614968F3
:101C0000916358E0026840F20045136A42F4806430
:101C100023F480731362136AD2F804E0D2F81CC074
:101C20008E6823F40073C4F20105AC4243EA062334
:101C300007D1CE6840F2FF47360223F44063BE432B
:101C400033430E68AC4207D1D1E905542EF4405716
:101C500047EA051747EA041E2CF073073743C2F81A
:101C600004E0D7614968D16325E000BF026840F213
:101C70000047136A42F4806623F480531362D2F85B
:101C800020E05368D4690D68D1F808C0C4F2010798
:101C9000BE4204D14E6923F4804343EA861324F400
:101CA000E64646EA05265360D6612EF40057496899
:101CB00047EA0C33116400211362002280F83C20B3
:101CC0000846F0BD0121002280F83C200846F0BD06
:101CD00070470000002804BF0120704710B504467B
:101CE00090F83D0028B9002084F83C00204600F020
:101CF0001FF8022084F83D002068211D01F084FABD
:101D0000012084F8460084F83E0084F83F0084F8FF
:101D1000400084F8410084F8420084F8430084F8CD
:101D2000440084F8450084F83D00002010BD000008
:101D3000704700002DE9F04190F83C30012B04BFC2
:101D40000220BDE8F0814FEAB202032A00F2FC80D3
:101D5000DFE802F0023E7EBE036840F200471A6AE6
:101D600043F4806522F001021A621C6A1A46D3F815
:101D700004E052F818CF8E6824F00204C4F2010780
:101D8000BD4244EA060405D1CE6824F00C0426F0D6
:101D9000040634430E68BD4207D1D1E905572EF43D
:101DA000407E45EA0E0545EA070E2CF073073743DF
:101DB000C3F804E09F614F6809695F631C629F6913
:101DC00047F008079F619F6927F004079F61B1E012
:101DD000036840F200481A6A43F4806522F010025A
:101DE0001A621C6A1A46D3F804E052F818CF8F68BA
:101DF00024F02004C4F20108454544EA071407D141
:101E0000CF686FF0400624F0C00406EA071634439A
:101E10000F68454507D1D1E905562EF4406E4EEACC
:101E2000850545EA860E2CF4E64646EA0727C3F800
:101E300004E09F614F6809699F631C629F6947F4D2
:101E400000679F619F6927F480679F6171E000BF11
:101E5000036840F200481A6A43F4806522F48072F5
:101E60001A621C6A1A46D3F804E052F81CCF8F6835
:101E700024F40074C4F20108454544EA072408D15B
:101E8000CF6840F2FF463F0224F4406427EA06068A
:101E900034430F68454507D1D1E905562EF4405E1D
:101EA0004EEA051545EA061E2CF073063743C3F8C3
:101EB00004E0DF614F680969DF631C62DF6947F096
:101EC0000807DF61DF6927F00407DF6132E000BF48
:101ED000036840F200451A6A43F4806722F4805296
:101EE0001A621A46D3F820C05C6852F81CEFD1F889
:101EF00000808E68C4F20105AF4204D14D6924F41C
:101F0000804444EA85142CF4005747EA06372EF43F
:101F1000E64646EA08265C60DE614E6809691E6492
:101F20001F62DF6947F40067DF61DF6927F48067BC
:101F3000DF6109021368194311600021002280F853
:101F40003C200846BDE8F0810121002280F83C20B9
:101F50000846BDE8F0810000002804BF012070475A
:101F600010B5044690F83D0028B9002084F83C00E4
:101F7000204600F01FF8022084F83D002068211D53
:101F800001F042F9012084F8460084F83E0084F80C
:101F90003F0084F8400084F8410084F8420084F84F
:101FA000430084F8440084F8450084F83D00002094
:101FB00010BD000081B0006844F20001C4F20101CC
:101FC000884201D001B070470020009043F64400E1
:101FD000C4F20200016841F480310160006800F43D
:101FE00080300090009801B07047000070470000FA
:101FF00041B1082910D0042914BF00F1410200F1B9
:102000003F020BE090F83E20012A1CBF01207047E0
:10201000022280F83E2013E000F140021278012AEB
:102020001CBF012070470222082907D0042914BFD1
:1020300080F8412080F83F2002E000BF80F8402077
:10204000006801F01F010122036A02FA01F123EA8C
:1020500001020262026A114341F2FF72C4F20002FD
:10206000904201620CDC40F2FF71C4F20001884230
:1020700014DCB0F1804F37D040F2004116E000BFD1
:1020800040F2FF31C4F20101884215DC41F6000143
:10209000C4F20001884227D0002115E040F600017B
:1020A000C4F2000188421FD040F60041C4F2000192
:1020B000884219D01FE000BF44F20001C4F20101C0
:1020C000884211D040F20041C4F20101884212D18D
:1020D000416C40F2004340F48062C4F2010341F4D9
:1020E00000419A42416406D1816801F00701062946
:1020F00004BF00207047016841F001010160002029
:1021000070470000704700007047000070470000F3
:1021100070470000B0B582B0044600680168C3682B
:10212000426901F02F05202D03F0200506D12DB1C5
:10213000204602B0BDE8B04002F086B95FEA017CFB
:102140001EBF02F0010E03F4907212EB0E0255D185
:10215000226B012A05D111F0100218BF13F01002F2
:1021600036D10A0622D513F080021FD094F83D1014
:10217000212941D1A168B1F5805F03D121690029EE
:1021800000F06C82216A4A1C226209784160E18C6D
:1021900001390A04E1842FD1C16821F08001C160B6
:1021A000C16841F04001C16002B0B0BD490623D50D
:1021B00013F0400120D0C16821F04001C16020210E
:1021C000204684F83D1002B0BDE8B04000F0FEBAF1
:1021D00000210191016801914168019101994169D2
:1021E000490600F18B80A18DE28DE38D002B1CBF91
:1021F000891A5FEA01420CD102B0B0BDCA0718BF0C
:1022000013F4807240F032814A0700F135813AE1DF
:10221000206850E8030F226820F4907042E803031E
:10222000DBB1206850E8030F226820F4907042E888
:10223000030393B1206850E8030F226820F49070E4
:1022400042E803034BB1206850E8030F226820F4F2
:10225000907042E80303002BDAD1206850E8050FA4
:10226000226820F0010042E80503DBB1206850E855
:10227000050F226820F0010042E8050393B12068B1
:1022800050E8050F226820F0010042E805034BB139
:10229000206850E8050F226820F0010042E805039D
:1022A000002BDAD1202084F83E0000202063206833
:1022B00050E8030F226820F0100042E80303DBB16E
:1022C000206850E8030F226820F0100042E8030362
:1022D00093B1206850E8030F226820F0100042E814
:1022E00003034BB1206850E8030F226820F0100070
:1022F00042E80303002BDAD189B2B0E0A26B116887
:102300004B689DB2002D3FF477AFA18D8D42BFF495
:1023100073AFE385D269B2F5807F00F09D8050E80D
:10232000030F216820F4807041E80302E2B12068C5
:1023300050E8030F216820F4807041E803029AB14D
:10234000206850E8030F216820F4807041E8030200
:1023500052B1206850E8030F216820F4807041E8F2
:1023600003020AB12068DAE7206850E8050F216807
:1023700020F0010041E80502DAB1206850E8050FBD
:10238000216820F0010041E8050292B1206850E880
:10239000050F216820F0010041E805024AB12068DC
:1023A00050E8050F216820F0010041E80502002AED
:1023B000DAD1206850E8050F216820F0400041E89C
:1023C0000502DAB1206850E8050F216820F04000CE
:1023D00041E8050292B1206850E8050F216820F01D
:1023E000400041E805024AB1206850E8050F216825
:1023F00020F0400041E80502002ADAD1202084F8CC
:102400003E0000202063206850E8030F216820F080
:10241000100041E80302DAB1206850E8030F216898
:1024200020F0100041E8030292B1206850E8030F49
:10243000216820F0100041E803024AB1206850E80A
:10244000030F216820F0100041E80302002ADAD1CE
:10245000A06BFEF707F8A18DE08D081A81B2204627
:1024600002B0BDE8B040FFF751BE00BF226C42F0A1
:10247000010222644A0706D5BEF1000F03D0226C88
:1024800042F0020222648A0706D5BEF1000F03D093
:10249000226C42F004022264BCF1000F06D555EA1A
:1024A0000E0203D0226C42F008022264226C002A41
:1024B0003FF4A2AE11F0200118BF002D03D020463A
:1024C00001F0C2FF20684169226C01F0400102F076
:1024D0000802891800F0A28050E8030F216820F458
:1024E000907041E80302C2B3206850E8030F2168EE
:1024F00020F4907041E803027AB3206850E8030F9B
:10250000216820F4907041E8030232B3206850E85B
:10251000030F216820F4907041E80302EAB12068BB
:10252000DAE700BF206850E8050F216820F00100BD
:1025300041E80502DAB1206850E8050F216820F073
:10254000010041E8050292B1206850E8050F2168BA
:1025500020F0010041E805024AB1206850E8050F6B
:10256000216820F0010041E80502002ADAD1206B41
:10257000012824D1206850E8030F216820F01000C2
:1025800041E80302DAB1206850E8030F216820F027
:10259000100041E8030292B1206850E8030F21685F
:1025A00020F0100041E803024AB1206850E8030F10
:1025B000216820F0100041E80302002ADAD120202F
:1025C00084F83E00002020632068416949063FD519
:1025D00050E8050F216820F0400041E805022AB3C9
:1025E000206850E8050F216820F0400041E805020E
:1025F000E2B1206850E8050F216820F0400041E872
:1026000005029AB1206850E8050F216820F04000CB
:1026100041E8050252B12068DAE700BF2046FFF723
:1026200077FD0020206402B0B0BD00BFA06B78B180
:1026300044F23D41C0F600010165FDF75DFF002851
:102640003FF4DAADA06B016D02B0BDE8B0400847C1
:10265000204602B0BDE8B040FFF75ABD216A31F80C
:10266000022B6FF35F224260216290E5002804BFD5
:102670000120704710B5044690F83D0028B90020AD
:1026800084F83C00204600F021F8242084F83D0026
:102690002068C16821F40051C160204601F054FF58
:1026A0002068016921F490410161416921F02A010A
:1026B0004161C16841F40051C160002020212064C3
:1026C00084F83D1084F83E1010BD00002DE9F0475D
:1026D00086B00446016841F20040C4F20100814224
:1026E00002D006B0BDE8F087002643F6300101961F
:1026F000C4F202014A6946F2284842F020024A61C7
:102700004A6900F5744002F020020192019A019694
:102710000A68C4F2020842F004020A60096801F083
:10272000040101910199C02101910221CDE9021614
:10273000032104910821059101A9FEF7ADF840F2AB
:10274000E405C2F200054FF480704FF0206A4FF4A8
:102750008069C5E906604FF480372846C5E9008ADC
:10276000C5E90266C5E90496C5E90876FDF7B6FF36
:10277000002818BFFDF770FEA563AC6340F2441556
:1027800008F17800C2F200054021C5E9000A05F110
:10279000080080E842022846C5E90566C5E90767E2
:1027A0006E62FDF79BFF002818BFFDF755FE47201E
:1027B000022100226563AC63FEF7D8F94720FEF7DB
:1027C000C5F906B0BDE8F08770470000704700000B
:1027D000FEE7000040F27C20C2F20000006840F2F8
:1027E0009C4141637047000040F27C20C2F200002F
:1027F00000684FF4487181637047000040F27C200C
:10280000C2F2000000684FF42F71C16370470000EE
:1028100040F2EC10C2F2000000684FF46171C16335
:102820007047000040F27C20C2F2000000684FF4C4
:10283000617101647047000040F27C20C2F2000028
:10284000006840F62E1141637047000040F27C2082
:10285000C2F20000006840F6340181637047000056
:1028600040F27C20C2F20000006840F2A461C16323
:102870007047000040F2EC10C2F20000006840F621
:102880002821C1637047000040F27C20C2F20000A2
:10289000006840F6282101647047000080B582B0CE
:1028A0000020019043F63000C4F2020001680022CB
:1028B00041F4800101600068002100F48000019073
:1028C00001983920FEF752F93920FEF73FF94520EB
:1028D00000210022FEF74AF9452002B0BDE8804001
:1028E000FEF734B92DE9F04F87B0002543F63000EC
:1028F000CDE905550195C4F20200016840F2004A95
:1029000041F0100101600168C4F2020A01F01001F7
:102910000191019901950168AAF5806441F0800157
:1029200001600168002201F0800101910199019587
:102930000168182641F001010160016801F0010100
:10294000019101990195016841F00401016001685C
:1029500001F00401019101990195016841F0020122
:102960000160016801F0020101910199019501687E
:1029700041F0080101600068182100F00800019092
:1029800001982046FEF76CF80AF580684046302131
:102990000022FEF765F8504647F287010022FEF755
:1029A0005FF80AF50069484604210022FEF758F84E
:1029B000102002904FF4041002AF03904FF0010B6F
:1029C0000AF540603946CDF810B0FDF765FFCDE956
:1029D000026B022620463946CDF810B00596FDF769
:1029E0005BFF3020CDE9020B40463946CDE9046655
:1029F000FDF752FF0720CDE9020B50463946CDE9DD
:102A00000466FDF749FF4FF4E140CDE9020B504663
:102A10003946CDE90455FDF73FFF48F22830CDE9AE
:102A20000205504639460495FDF736FF40F2BA706C
:102A3000CDE90205484639460495FDF72DFF4FF4D0
:102A4000E050CDE90205404639460495FDF724FFE4
:102A50000420CDE9020B48463946CDE90455FDF77F
:102A60001BFF0A2000210022FEF780F80A20FEF753
:102A70006DF807B0BDE8F08F10B58CB040F2A4102F
:102A800000210024C2F20000C4F20101C0E90014D8
:102A90000321CDE90314012144F62062CDE9051498
:102AA000CDE9091403A9CDE90044C0E90242C0E917
:102AB00004448461CDE907440B94FEF78BFD0028A4
:102AC00018BFFDF7C9FC40F2A410C2F2000069462D
:102AD000CDE90044FEF76AFB002818BFFDF7BCFCF7
:102AE0000CB010BD10B58EB040F2EC100021C2F257
:102AF00000004FF08042472344F61F640D91CDE95A
:102B00000B110991CDE90711CDE90511CDE90311AB
:102B1000CDE90111C0E90023C0E90214016181611E
:102B2000FEF7A0FB002818BFFDF796FC4FF480507D
:102B30000A9040F2EC10C2F200000AA9FEF77CFCF9
:102B4000002818BFFDF788FC40F2EC10C2F200002C
:102B5000FFF702FA002818BFFDF77EFC40F2EC10E8
:102B6000C2F20000FFF7B6F8002818BFFDF774FCAA
:102B700040F2EC100024C2F2000008A9CDE908449C
:102B8000FEF714FB002818BFFDF766FC6020CDE9B6
:102B9000010440F2EC10C2F2000001A900220394EB
:102BA0000594FFF7C7F8002818BFFDF755FC40F261
:102BB000EC10C2F2000001A90422FFF7BBF80028C4
:102BC00018BFFDF749FC40F2EC10C2F2000001A969
:102BD0000822FFF7AFF8002818BFFDF73DFC0020E2
:102BE000019040F2EC10C2F2000001A90C22FEF7A5
:102BF00093FF002818BFFDF72FFC40F2EC10C2F243
:102C00000000FEF7C9FE0EB010BD000080B58CB00C
:102C100040F2342040F200420021C2F20000C4F22F
:102C20000002C0E90021032244F62063CDE903211C
:102C30000122CDE90011C0E9021301618161CDE9F2
:102C40000521CDE90711CDE909210B9103A9FEF773
:102C5000C1FC002818BFFDF7FFFB40F23420C2F290
:102C600000006946FEF7A2FA002818BFFDF7F4FB42
:102C70000CB080BD10B58EB040F27C2040F6000252
:102C80000021C2F20000C4F20002472344F61F6490
:102C90000D91CDE90B110991CDE90711CDE9051190
:102CA000CDE90311CDE90111C0E90023C0E9021407
:102CB00001618161FEF7D6FA002818BFFDF7CCFB51
:102CC0004FF480500A9040F27C20C2F200000AA922
:102CD000FEF7B2FB002818BFFDF7BEFB40F27C20D8
:102CE000C2F20000FFF738F9002818BFFDF7B4FB67
:102CF00040F27C200024C2F2000008A9CDE908447B
:102D0000FEF754FA002818BFFDF7A6FB6020CDE9B6
:102D1000010440F27C20C2F2000001A900220394C9
:102D20000594FFF707F8002818BFFDF795FB40F260
:102D30007C20C2F2000001A90422FEF7FBFF00285C
:102D400018BFFDF789FB40F27C20C2F2000001A908
:102D50000822FEF7EFFF002818BFFDF77DFB40F2C9
:102D60007C20C2F2000001A90C22FEF7E3FF00283C
:102D700018BFFDF771FB40F27C20C2F20000FEF7A5
:102D80000BFE0EB010BD000010B58EB040F2C42096
:102D90000021C2F2000040F60042C7240D91CDE9A7
:102DA0000B110991CDE90711CDE90511CDE9031109
:102DB000CDE90111C4F2000241F61F43C0E902143B
:102DC00001618021C0E900238161FEF74BFA0028F0
:102DD00018BFFDF741FB4FF480500A9040F2C42029
:102DE000C2F200000AA9FEF727FB002818BFFDF772
:102DF00033FB40F2C420C2F20000FFF7ADF8002818
:102E000018BFFDF729FB40F2C4200024C2F20000E5
:102E100008A9CDE90844FEF7C9F9002818BFFDF755
:102E20001BFB6020CDE9010440F2C420C2F2000087
:102E300001A9002203940594FEF77CFF002818BF27
:102E4000FDF70AFB40F2C420C2F20000FEF7A4FD29
:102E50000EB010BD80B582B040F20C3041F20002DD
:102E60000021C2F20000C4F2000240F2CF2342F27D
:102E70000F7CCDE90011C0E90023C0E9021C81618B
:102E8000FEF7F0F9002818BFFDF7E6FA40F20C3023
:102E9000C2F200006946FEF789F9002818BFFDF765
:102EA000DBFA02B080BD000010B588B040F25430AB
:102EB00044F200010024C2F20000C4F2010142F217
:102EC0000F73CDE90644CDE90444472280E816009B
:102ED000C0E903348461FFF73FF8002818BFFDF70D
:102EE000BBFA6020CDE9010440F25430C2F2000088
:102EF00001A9002203940594FEF71CFF002818BFC7
:102F0000FDF7AAFA40F25430C2F2000001A90422EF
:102F1000FEF710FF002818BFFDF79EFA40F254306C
:102F2000C2F20000FEF738FD08B010BD80B540F2D7
:102F30009C3041F20041C2F20000C4F201010023C2
:102F40004FF00C0C4FF4E13280E80E00C0E903337F
:102F5000C0E905C3C361FFF789FB002808BF80BD36
:102F6000BDE88040FDF778BAFEE70000FEE700000C
:102F7000002857D0017890ED0F1A90ED102A80EDBF
:102F8000070A30EEC00A0029C0ED060A80ED0F0ADC
:102F900080ED101A80ED112A48D0012940F0908070
:102FA00090ED015A90ED026A30EE414A31EE011A7D
:102FB00090ED037A24EE054A20EE065A30EE410ADF
:102FC00032EE000AD0E90C1280ED0C0A20EE070A5E
:102FD00034EE051A90ED082A90ED043A80ED0B0AC4
:102FE00031EE000A32EE000AB4EE430AF1EE10FAB6
:102FF00080ED094A80ED0A5AC0E90D1280ED080AF9
:10300000C2BF80ED083AB0EE430A7047B1EE431AF2
:10301000B4EE410AF1EE10FABCBF80ED081AB0EE32
:10302000410A70479FED280A704700BF90ED024AA1
:1030300090ED0A6A90ED012A90ED053A24EE004ADF
:1030400090ED035A34EE064A20EE022AD0E90C1223
:1030500030EE410AB4EE434A80ED0C0A20EE050A38
:10306000F1EE10FA80ED092A80ED0A4AC0E90D124E
:1030700080ED0B0A06DCB1EE433AB4EE434AF1EEC2
:1030800010FA03DAB0EE434A80ED0A3A32EE042A2F
:1030900090ED041A30EE020AB4EE410AF1EE10FA95
:1030A00080ED080A07DCB1EE411AB4EE410AF1EEF8
:1030B00010FAA8BF7047B0EE410A80ED081A7047B9
:1030C00090ED080A704700BF00000000002808BF0C
:1030D000704780B518303021FDF73EF9BDE88040DB
:1030E00070470000002818BF002A01D1704700BFB8
:1030F00080B501701168416051688160916880ED10
:10310000040AC160C0ED050A20302821FDF724F92A
:10311000BDE8804070470000704700007047000025
:10312000FDF7AABCB0B592B0002443F64000CDE94B
:103130000A44CDE908440594CDE90344CDE90144AE
:103140000094C4F202000168022541F08051016040
:10315000006800F080500090009847F20000009452
:10316000C4F20000016841F4804101600068482118
:1031700000F4804000900098012006904FF48030C9
:1031800007904FF480000D9004200E90119006A837
:103190000C95CDE90F15FDF733FE28B1EFF3108044
:1031A00072B600BFFEE700BF0F20CDE901054FF466
:1031B0008050CDE9040401A802210394FDF712FD1B
:1031C00020B1EFF3108072B6FEE700BF12B0B0BDC1
:1031D0004EF68850CEF20000016841F470010160A3
:1031E0007047000040F23420C2F20000FEF71CBB22
:1031F00040F2C420C2F20000FEF716BB40F20C30D1
:10320000C2F20000FEF710BB10B540F6FF3E0368A7
:10321000C4F2000E40F2004C7045C4F2010C27DCF1
:10322000B0F1804F31D040F20042C4F2000290422F
:103230002BD040F60002C4F20002904225D041F6A5
:10324000FF72C4F20002904229DC70453CDCB0F110
:10325000804F5FD040F20042C4F20002904259D049
:1032600040F60002C4F20002904253D056E000BF84
:1032700040F60042C4F20002904206D0604504D0FD
:103280000022C4F201029042D9D14A6823F07003AF
:10329000134341F6FF72C4F200029042D5DD43F6BB
:1032A000FF72C4F20102904222DC42F20002C4F238
:1032B000000290422ED00022C4F20102904229D096
:1032C000604527D02AE000BF40F60042C4F2000269
:1032D00090421FD041F60002C4F20002904219D081
:1032E00041F60042C4F20002904213D016E000BF43
:1032F00044F20002C4F2010290420BD044F60002F4
:10330000C4F20102904205D044F20042C4F201022C
:10331000904203D1CA6823F44073134323F0800220
:103320004B69D1F800E08C681A430260C46240F433
:103330008062C0F828E0624504BF09690163012189
:10334000416110BD2DE9F04F81B040F2E038C2F28A
:10335000000840F600494046C4F20209FFF7B6FEF5
:1033600008F148000090FFF7B1FE40F2780BC2F27E
:10337000000B00202425CBE90500A9F5006A0020F8
:1033800044F620660027C4F2010509E032200F212F
:10339000ABF80A10ABF80C0001F088F9DBF8140068
:1033A00040F22443C4F20003196842F2107C8AB24E
:1033B000624588BF711A00FA81F0ABF80210CBF8B1
:1033C00014001F60DBF81800BBF90420BBF90A30B9
:1033D0001044CBF8180028680AB284B2644588BF4C
:1033E000301A00EE102A01EE103AABF80000ABF8EC
:1033F00004002F60ABF80800B8EEC00AF8EEC10A6E
:103400004046ABF80610FFF7B3FDBBF90800BBF967
:103410000C1000EE100A01EE101A0098B8EEC00A67
:10342000F8EEC10AFFF7A4FD98ED080A98ED1A1A04
:1034300044F23400BCEEC00AC4F2010080ED000A80
:10344000BCEEC10A80ED010A3220FDF7F9F95046C1
:103450004FF40041FDF7FEFA01280BD1DBF8140010
:1034600041F27C51884265DCDBF8180041F27D5165
:1034700088425FDA50462021FDF7ECFA50B9484601
:103480000821FDF7E7FA012804D148461021FDF78D
:10349000E1FA88B150462021FDF7DCFA01280FD16E
:1034A00048460821FDF7D6FA012809D148461021DF
:1034B000FDF7D0FA012803D12A20282168E700BFB0
:1034C00050462021FDF7C6FA01280BD148460821B5
:1034D000FDF7C0FA30B948461021FDF7BBFA0028C5
:1034E0003FF454AF48460221FDF7B4FA01283FF4F7
:1034F0004DAF50462021FDF7ADFA68B94846082186
:10350000FDF7A8FA40B948461021FDF7A3FA0128B3
:1035100002D10F2032213BE748462021FDF79AFADD
:1035200001284FF028014FF02A0008BF322108BFC0
:103530000F202DE701B0BDE8F04F01F09BB800006F
:103540002DE9F04F81B040F2E03BC2F2000B58464B
:10355000FFF7BCFD0BF148000090FFF7B7FD40F20C
:1035600078071820C2F20007C0F223002424C7F80D
:103570000A004FF0000A1820152544F6206842F290
:103580001079C4F20104C7E905AA00BF40F2244340
:10359000C4F20003196800B28AB24A4588BFA8EB9A
:1035A00001017980C3F800A022680BB200EE103A46
:1035B00001EE100A96B2B8EEC00AF8EEC10A5846FB
:1035C0004E4588BFA8EB02023A80BA80C4F800A03A
:1035D000F9803A81FFF7CCFCB7F90800B7F90C1075
:1035E00000EE100A01EE101A0098B8EEC00AF8EECC
:1035F000C10AFFF7BDFC9BED080A9BED1A1A44F2C5
:103600003400BCEEC00AC4F2010080ED000ABCEE3A
:10361000C10A80ED010A3220FDF712F901F00EF81F
:1036200015B17889013DB1E701B0BDE8F04F01F077
:1036300021B800002DE9F04F81B040F2E038C2F22D
:10364000000840F600494046C4F20209FFF73EFD7B
:1036500008F148000090FFF739FD40F2780BC2F204
:10366000000B00202425CBE90500A9F5006A002005
:1036700044F620660027C4F2010509E03220142137
:10368000ABF80A10ABF80C0001F010F8DBF81400EE
:1036900040F22443C4F20003196842F2107C8AB25B
:1036A000624588BF711A00FA81F0ABF80210CBF8BE
:1036B00014001F60DBF81800BBF90420BBF90A30C6
:1036C0001044CBF8180028680AB284B2644588BF59
:1036D000301A00EE102A01EE103AABF80000ABF8F9
:1036E00004002F60ABF80800B8EEC00AF8EEC10A7B
:1036F0004046ABF80610FFF73BFCBBF90800BBF9EE
:103700000C1000EE100A01EE101A0098B8EEC00A74
:10371000F8EEC10AFFF72CFC98ED080A98ED1A1A8A
:1037200044F23400BCEEC00AC4F2010080ED000A8D
:10373000BCEEC10A80ED010A3220FDF781F8504647
:103740004FF40041FDF786F9012809D1DBF8140098
:10375000B0F5966F64DCDBF81800B0F5966F5FDCAF
:1037600050462021FDF776F950B948460821FDF76B
:1037700071F9012804D148461021FDF76BF988B191
:1037800050462021FDF766F901280FD1484608214F
:10379000FDF760F9012809D148461021FDF75AF9D3
:1037A000012803D12A2028216AE700BF50462021A2
:1037B000FDF750F901280BD148460821FDF74AF9D9
:1037C00030B948461021FDF745F900283FF456AFBF
:1037D00048460221FDF73EF901283FF44FAF50461D
:1037E0002021FDF737F968B948460821FDF732F97D
:1037F00040B948461021FDF72DF9012802D11420C7
:1038000032213DE748462021FDF724F901284FF0F9
:1038100028014FF02A0008BF322108BF14202FE7EB
:103820000020CBE9050001B0BDE8F04F00F022BF59
:103830002DE9F04F81B040F2E038C2F2000840F6C6
:1038400000494046C4F20209FFF740FC08F1480075
:103850000090FFF73BFC40F2780BC2F2000B002017
:103860002425CBE90500A9F5006A002044F620666E
:103870000027C4F2010509E032201421ABF80A1038
:10388000ABF80C0000F012FFDBF8140040F2244308
:10389000C4F20003196842F2107C8AB2624588BF04
:1038A000711A00FA81F0ABF80210CBF814001F6017
:1038B000DBF81800BBF90420BBF90A301044CBF840
:1038C000180028680AB284B2644588BF301A00EE36
:1038D000102A01EE103AABF80000ABF804002F609C
:1038E000ABF80800B8EEC00AF8EEC10A4046ABF8E3
:1038F0000610FFF73DFBBBF90800BBF90C1000EE0A
:10390000100A01EE101A0098B8EEC00AF8EEC10ACB
:10391000FFF72EFB98ED080A98ED1A1A44F23400CE
:10392000BCEEC00AC4F2010080ED000ABCEEC10A80
:1039300080ED010A3220FCF783FF50464FF400412E
:10394000FDF788F8012809D1DBF81400B0F52F7FC6
:1039500064DCDBF81800B0F52F7F5FDC50462021D7
:10396000FDF778F850B948460821FDF773F80128AB
:1039700004D148461021FDF76DF888B1504620214A
:10398000FDF768F801280FD148460821FDF762F8D5
:10399000012809D148461021FDF75CF8012803D120
:1039A0002A2028216AE700BF50462021FDF752F85F
:1039B00001280BD148460821FDF74CF830B948469C
:1039C0001021FDF747F800283FF456AF4846022182
:1039D000FDF740F801283FF44FAF50462021FDF796
:1039E00039F868B948460821FDF734F840B9484627
:1039F0001021FDF72FF8012802D1142032213DE7D4
:103A000048462021FDF726F801284FF028014FF005
:103A10002A0008BF322108BF14202FE701B0BDE8FB
:103A2000F04F00F027BE00002DE9F04F81B040F2CA
:103A3000E03BC2F2000B40F600485846C4F20208D0
:103A4000FFF744FB0BF148000090FFF73FFB40F20B
:103A50007809C2F2000900202427C9E90500A8F569
:103A6000806A002044F620640025C4F2010709E0C2
:103A700032201421A9F80A10A9F80C0000F016FE53
:103A8000D9F8140040F22443C4F20003196842F24A
:103A9000107C8AB2624588BF611A00FA81F0A9F8E9
:103AA0000210C9F814001D60D9F81800B9F90420F3
:103AB000B9F90A301044C9F8180038680AB286B259
:103AC000664588BF201A00EE102A01EE103AA9F8C8
:103AD0000000A9F804003D60A9F80800B8EEC00A8B
:103AE000F8EEC10A5846A9F80610FFF741FAB9F9ED
:103AF0000800B9F90C1000EE100A01EE101A009837
:103B0000B8EEC00AF8EEC10AFFF732FA9BED080AD8
:103B10009BED1A1A44F23400BCEEC00AC4F2010054
:103B200080ED000ABCEEC10A80ED010A3220FCF7EC
:103B300087FE50464FF48061FCF78CFF012819D1B5
:103B400040468021FCF786FF012813D150464FF4F0
:103B50008051FCF77FFF01280CD1D9F8140040F602
:103B60008631884268DCD9F8180040F687318842EF
:103B700062DA00BFA8F5006630462021FCF76AFF34
:103B800050B940460821FCF765FF012804D14046A2
:103B90001021FCF75FFF88B130462021FCF75AFF67
:103BA00001280FD140460821FCF754FF012809D114
:103BB00040461021FCF74EFF012803D13420332169
:103BC00058E700BF30462021FCF744FF01280BD105
:103BD00040460821FCF73EFF30B940461021FCF773
:103BE00039FF00283FF444AF40460221FCF732FF82
:103BF00001283FF43DAF30462021FCF72BFF68B988
:103C000040460821FCF726FF40B940461021FCF74A
:103C100021FF012802D1142032212BE74046202128
:103C2000FCF718FF01284FF033014FF0340008BFB4
:103C3000322108BF14201DE70020C9E9050001B0AA
:103C4000BDE8F04F00F016BD2DE9F04F81B040F215
:103C5000E034C2F200042046FFF738FA04F14800CD
:103C60000090FFF733FA40F27806C2F200061820FF
:103C7000C0F22300B6F90210C6F80A00B6F9040033
:103C8000B3297161B061D8BFB32866DC40F2240A61
:103C900040F2244BC4F2010A1820C4F2000B44F68F
:103CA000206942F210774FF0000800E07089DBF8DD
:103CB000001000B28AB2BA4288BFA9EB010171803C
:103CC000CBF80080DAF800200BB200EE103A01EEDB
:103CD000100A95B2B8EEC00AF8EEC10A2046BD42FD
:103CE00088BFA9EB02023280B280CAF80080F1805E
:103CF0003281FFF73DF9B6F90800B6F90C1000EE75
:103D0000100A01EE101A0098B8EEC00AF8EEC10AC7
:103D1000FFF72EF994ED080A94ED1A1A44F23400D4
:103D2000BCEEC00AC4F2010080ED000ABCEEC10A7C
:103D300080ED010A3220FCF783FD00F07FFC706902
:103D4000B6F90210B6F904200144B069B329104451
:103D50007161B061D8BFB328A8DD0020C6E90500B5
:103D600001B0BDE8F04F00F085BC000010B52DEDAE
:103D7000048B40F2E0349FED118A9FED119AC2F25C
:103D8000000446F22002C0F6000220460021B0EEF8
:103D9000480AF0EE490AFFF7A5F946F22C0204F1B1
:103DA0004800C0F600020021B0EE480AF0EE490AD1
:103DB000BDEC048BBDE81040FFF794B900803B4593
:103DC0000000C8422DE9F04F83B040F2E035C2F266
:103DD000000540F600042846C4F20204FFF776F915
:103DE00005F148000290FFF771F940F278082426A7
:103DF000C2F200084FF00009A4F5806744F6206A7B
:103E000042F2107B04F58060C4F20106C8E905990E
:103E100001900CE00020C4F2C000C8F82400282063
:103E20000A21A8F80A10A8F80C0000F007FC384690
:103E30004FF48071FCF70EFE00EE100AB8EE400A57
:103E400038464FF4007188ED070AFCF703FE00EED8
:103E5000100AB8EE400A40F2244288ED080AC4F283
:103E60000002106881B2594588BFAAEB0000D8F85B
:103E70001410A8F8020001FA80F1C8F81410C2F872
:103E80000090316802B28BB25B4588BFAAEB01019A
:103E9000D8F81830A8F8001003FA81F3A8F8041035
:103EA000C8F81830C6F80090A8F80600B8F90A005B
:103EB00000EE102A01EE100AB8EEC00AF8EEC10AB0
:103EC0002846A8F80810FFF753F8B8F90800B8F921
:103ED0000C1000EE100A01EE101A0298B8EEC00A9B
:103EE000F8EEC10AFFF744F895ED080A95ED1A1AA5
:103EF00044F23400BCEEC00AC4F2010080ED000AB6
:103F0000BCEEC10A80ED010A3220FCF799FC204684
:103F10004FF48061FCF79EFD012817D120464FF435
:103F20008051FCF797FD012810D101988021FCF702
:103F300091FD01280AD1D8F81400B0F57A7F5BDA38
:103F4000D8F81800B0F57A7F56DC00BF20464FF451
:103F50008061FCF77FFD68B920464FF48051FCF783
:103F600079FD012806D101988021FCF773FD002816
:103F70003ED000BF20464FF48061FCF76BFD012866
:103F80000CD120464FF48051FCF764FD30B9019804
:103F90008021FCF75FFD00283FF43CAF38464FF42A
:103FA0000071FCF757FD01283FF434AF20464FF471
:103FB0008061FCF74FFD58B920464FF48051FCF763
:103FC00049FD28B901988021FCF744FD012806D05D
:103FD00038464FF48071FCF73DFD012808D10020E0
:103FE000C4F2E000C8F828000A20282119E700BF21
:103FF00028201E2115E700BF0020C8E9050003B0F6
:10400000BDE8F04F00F036BB2DE9F04F81B040F233
:10401000E035C2F2000540F600042846C4F202046E
:10402000FFF754F805F148063046FFF74FF840F225
:10403000780804F58060C2F200084FF0000944F6E9
:10404000206A42F2107B00900020C8E9059908E040
:104050001B20C0F22500C8F80A0000F0EFFAD8F8DB
:10406000140040F22443C4F20003196824278AB2E2
:104070005A4588BFAAEB010100FA81F0A8F80210A6
:10408000C8F81400C3F80090C4F2010738680AB2F7
:1040900083B25B4588BFAAEB0000D8F81830A8F8B7
:1040A000000003FA80F3A8F80400C8F81830C7F835
:1040B0000090A8F80800B8F90A0000EE102A01EEF6
:1040C000100AB8EEC00AF8EEC10A2846A8F8061091
:1040D000FEF74EFFB8F90800B8F90C1000EE100A10
:1040E00001EE101AB8EEC00AF8EEC10A3046FEF72B
:1040F0003FFF95ED080A95ED1A1A44F23400BCEE24
:10410000C00AC4F2010080ED000ABCEEC10A80EDD5
:10411000010A3220FCF794FB20464FF48061FCF743
:1041200099FCA8B920464FF48051FCF793FC78B96C
:1041300000988021FCF78EFC50B9D8F81400B0F537
:104140007A6F65DAD8F81800B0F57A6F60DA00BFD8
:1041500020464FF48061FCF77DFC68B920464FF49F
:104160008051FCF777FC012806D100988021FCF7EC
:1041700071FC00283FF46CAF20464FF48061FCF7DF
:1041800069FC01280AD120464FF48051FCF762FCFB
:1041900020B900988021FCF75DFC40B1A4F5806750
:1041A00038464FF40071FCF755FC012808D10A206D
:1041B000C0F22800C8F80A0000F040FA012021E00F
:1041C00020464FF48061FCF745FC58B920464FF477
:1041D0008051FCF73FFC28B900988021FCF73AFC9D
:1041E000012807D038464FF48071FCF733FC0128D2
:1041F0007FF42EAF2820C0F20A00C8F80A0000F0B1
:104200001DFA0220C8F81000D8F8140029E700BFF2
:104210000020C8E9050001B0BDE8F04F00F02ABA5F
:104220002DE9F04F81B040F2E035C2F2000540F6D2
:1042300000042846C4F20204FEF748FF05F14806D0
:104240003046FEF743FF40F2780804F58060C2F282
:1042500000084FF0000944F6206A42F2107B0090FB
:104260000020C8E9059908E01B20C0F22500C8F825
:104270000A0000F0E3F9D8F8140040F22443C4F235
:104280000003196824278AB25A4588BFAAEB0101A6
:1042900000FA81F0A8F80210C8F81400C3F80090E2
:1042A000C4F2010738680AB283B25B4588BFAAEB43
:1042B0000000D8F81830A8F8000003FA80F3A8F836
:1042C0000400C8F81830C7F80090A8F80800B8F93A
:1042D0000A0000EE102A01EE100AB8EEC00AF8EE4D
:1042E000C10A2846A8F80610FEF742FEB8F90800F1
:1042F000B8F90C1000EE100A01EE101AB8EEC00A60
:10430000F8EEC10A3046FEF733FE95ED080A95ED4A
:104310001A1A44F23400BCEEC00AC4F2010080ED67
:10432000000ABCEEC10A80ED010A3220FCF788FACF
:1043300020464FF48061FCF78DFB012816D1204602
:104340004FF48051FCF786FB01280FD100988021A3
:10435000FCF780FB012809D1D8F81400B0F5FA6FFA
:1043600064DAD8F81800B0F5FA6F5FDA20464FF437
:104370008061FCF76FFB68B920464FF48051FCF771
:1043800069FB012806D100988021FCF763FB002817
:104390003FF46AAF20464FF48061FCF75BFB0128D5
:1043A0000AD120464FF48051FCF754FB20B9009805
:1043B0008021FCF74FFB40B1A4F5806738464FF4ED
:1043C0000071FCF747FB012808D10A20C0F2280041
:1043D000C8F80A0000F032F9012021E020464FF42D
:1043E0008061FCF737FB58B920464FF48051FCF749
:1043F00031FB28B900988021FCF72CFB012807D05D
:1044000038464FF48071FCF725FB01287FF42CAF70
:104410002820C0F20A00C8F80A0000F00FF90220B4
:10442000C8F81000D8F8140027E700BF0020C8E93A
:10443000050001B0BDE8F04F00F01CB9806B002111
:10444000C185C184FDF764BE81B090F83E10222979
:1044500020D18368B3F5805F08D10169002965D058
:1044600000F128010A6803685B680AE0014651F818
:10447000282F13B90369002BF5D003685B6803F09C
:104480007F0313700A6801320A60C18D01390A0482
:10449000C18501D001B070470168CA6822F02002CE
:1044A000CA60CA6822F48072CA604A6922F00102B6
:1044B0004A61202280F83E20026B012A40D100226E
:1044C000026300BF51E8031F026821F0100142E8B7
:1044D00003130168DBB151E8031F026821F01001EA
:1044E00042E80313016893B151E8031F026821F009
:1044F000100142E8031301684BB151E8031F026841
:1045000021F0100142E803130168002BDAD10A6898
:10451000D20606D5002200920A68009249680091EE
:104520000099818D01B0FDF7F1BD00BF0168826A7D
:1045300049686FF35F2122F8021B8262A5E700BF82
:1045400001B0FEF741B9000010B504460068D4E997
:1045500002C22369016921F440511143016162697A
:1045600043EA0C01E3691143C268194349F20C6341
:104570009A431143C1604169A26921F4407141F23B
:104580000043114340F48062C4F201039A42416146
:1045900002D1FCF7EBFB01E0FCF7D4FBE1696368B7
:1045A0001922B1F5004FA0FB02011FD15A00DB0F09
:1045B000FBF75AFE48F21F51C5F2EB11A0FB012395
:1045C0005A096FF0630302FB0300322303EBC000C0
:1045D000A0FB01014FF4F87000EA111000EB02108B
:1045E000C1F3421108442168886010BD9A009B0FF6
:1045F000FBF73AFE48F21F51C5F2EB11A0FB012375
:104600005A096FF0630302FB0300322303EB00102F
:10461000A0FB0101F02000EA511000EB0210C1F3F1
:10462000431108442168886010BD000040F29C30AE
:10463000C2F20000FDF76EBDFEE7000010B50024D9
:10464000C4F20204204608210122FCF709FA2046A0
:1046500010210022FCF704FA04F500642046102122
:104660000122FCF7FDF9204620210022BDE8104080
:10467000FCF7F6B910B50024C4F202042046082164
:104680000022FCF7EDF9204610210022FCF7E8F9A2
:1046900004F50064204610210022FCF7E1F92046D1
:1046A00020210022BDE81040FCF7DAB910B5002443
:1046B000C4F20204204608210022FCF7D1F920466A
:1046C00010210122FCF7CCF904F5006420461021EA
:1046D0000022FCF7C5F9204620210122BDE8104048
:1046E000FCF7BEB9FCF7D6F9FEF71CFDFEF7FAF8A9
:1046F000FEF7D4F8FEF71AFCFEF7BEF9FEF786FACD
:10470000FEF7B8FAFEF740FBFEF7A4FBFEF7EAF966
:10471000FEF7CAFBFEF7E6F8FEF7C0F8FEF706FC68
:10472000FEF7AAF9FEF772FAFEF7A4FAFEF72CFBE1
:10473000FEF790FBFEF7D6F940F25434C2F20004C3
:1047400020460021FDF754FC20460421FDF750FCD3
:1047500040F2EC14C2F2000420460021FDF748FCB0
:1047600020460821FDF744FC40F27C24C2F20004FC
:1047700020460021FDF73CFC20460421FDF738FCD3
:1047800020460821FDF734FC20460C21FDF730FCC3
:1047900040F2A410C2F200003C21FCF7E5FF40F219
:1047A0003420C2F200003C21FCF7DEFF40F20C3066
:1047B000C2F20000FCF7EAFD00F07AFEFFF7D6FA3D
:1047C00040F6E300FBF72EFEFEF736F8FEF73EF864
:1047D000FEF746F8FEF74EF8FEF756F8FEF7B2FD84
:1047E0004FF47A70FCF72CF8FDF7F4FF4FF47A7071
:1047F000FCF726F84FF41670FBF714FEFFF7E2FA09
:104800004FF47A70FCF71CF8FEF79AFE4FF47A70BA
:10481000FCF716F800F0CCFF4FF47A70FCF710F8B4
:10482000FFF706F84FF47A70FCF70AF8FDF7DCFFA3
:104830004FF47A70FCF704F84FF47A70FBF7F2FD4E
:104840004FF47A70FBF7FCFFFFF7BCFA4FF47A7075
:10485000FBF7F6FFFEF774FE4FF47A70FBF7F0FFFC
:1048600001F02CFB40F6C410FBF7EAFFFEF7E0FF77
:104870004FF47A70FBF7E4FFFDF7C0FF4FF47A7056
:10488000FBF7DEFFFFF79EFA4FF47A70FBF7D8FFD5
:10489000FEF756FE4FF47A70FBF7D2FF00F088FF68
:1048A00040F6B100FBF7BEFD4FF4FA70FBF7C8FF0E
:1048B00040F29D30FBF7B6FD4FF47A70FBF7C0FF76
:1048C00000F008FC40F2E004C2F20004206040F670
:1048D000B100FBF7A7FD6420FBF7B2FF206800F0F2
:1048E00079FD6420FBF7ACFFFEF7A4FE6420FBF724
:1048F000A7FFFDF7A1FF4FF47A70FBF7A1FFFFF7C9
:1049000061FA4FF4FA70FBF79BFFFEF719FE4FF4C4
:10491000FA70FBF795FF206800F07EFD4FF47A7087
:10492000FBF78EFF4FF41670FBF77CFD4FF4FA7027
:10493000FBF786FF40F22D50FBF774FD4FF47A70C1
:10494000FBF77EFF00F0C6FB20604FF41670FBF70C
:1049500069FD6420FBF774FF206800F03BFDFEF763
:1049600069FE6420FBF76CFFFDF770FF4FF47A706F
:10497000FBF766FFFFF726FA4FF4FA70FBF760FFCC
:10498000FEF7DEFD4FF4FA70FBF75AFF206800F0E7
:1049900043FD4FF47A70FBF753FF4FF47A70FBF747
:1049A00041FD4FF4FA70FBF74BFF40F24650FBF726
:1049B00039FD4FF4FA70FBF743FF4FF4E160FBF76A
:1049C00031FD4FF47A70FBF73BFF00F083FB206072
:1049D00040F24650FBF726FD4FF4FA70FBF730FF2C
:1049E0004FF47A70FBF71EFD6420FBF729FF206867
:1049F00000F0F0FC6420FBF723FFFEF71BFE6420B1
:104A0000FBF71EFFFDF72CFF4FF47A70FBF718FF42
:104A1000FFF7D8F94FF4FA70FBF712FFFEF790FD9D
:104A20004FF4FA70FBF70CFF206800F0F5FC40F63D
:104A30006600FBF7F7FC01F0ABF94FF4FA70FBF7F7
:104A4000FFFE01F079F84FF4FA70FBF7F9FEFEF77C
:104A5000EBFF4FF4FA70FBF7F3FEFFF7F5F84FF4B6
:104A6000FA70FBF7EDFEFDF7B5FEFDF7BDFEFDF7B5
:104A7000C5FEFDF7CDFEFDF7D5FE40F6C410FBF7F1
:104A8000DFFEFFF7CDFB6420FBF7DAFEFEF758FDF3
:104A90006420FBF7D5FE00F0F5FD4FF47A70FBF7CC
:104AA000CFFE00F01BFF4FF47A70FBF7C9FE40F613
:104AB0006600FBF7B7FC4FF47A70FBF7C1FE00F01D
:104AC00009FB206040F2D660FBF7ACFC4FF4FA70B3
:104AD000FBF7B6FE4FF4AF60FBF7A4FC6420FBF7D6
:104AE000AFFE206800F076FC6420FBF7A9FEFEF71D
:104AF000A1FD6420FBF7A4FEFDF7BCFE4FF47A7025
:104B0000FBF79EFEFFF75EF94FF4FA70FBF798FE95
:104B1000FEF716FD4FF4FA70FBF792FE206800F0E6
:104B20007BFC4FF47A70FBF78BFE40F23A70FBF798
:104B300079FC40F2DC50FBF783FE40F66600FBF7A1
:104B400071FC40F2DC50FBF77BFE40F20D20FBF7DE
:104B500069FC4FF47A70FBF773FE00F0BBFA20603B
:104B600040F66600FBF75EFC4FF4FA70FBF768FE58
:104B700040F23A70FBF756FC6420FBF761FE2068B8
:104B800000F028FC6420FBF75BFEFEF753FD642079
:104B9000FBF756FEFDF778FE4FF47A70FBF750FEF8
:104BA000FFF710F94FF4FA70FBF74AFEFEF7C8FC66
:104BB0004FF4FA70FBF744FE206800F02DFC4FF430
:104BC0007A70FBF73DFE40F6B100FBF72BFC40F29C
:104BD000DC50FBF735FE40F29D30FBF723FC40F242
:104BE000DC50FBF72DFE00F075FA206040F6B100B6
:104BF000FBF718FC6420FBF723FE206800F0EAFBBB
:104C00006420FBF71DFEFEF715FD6420FBF718FE80
:104C1000FDF712FE4FF47A70FBF712FEFFF7D2F8A1
:104C20004FF4FA70FBF70CFEFEF78AFC4FF4FA70B3
:104C3000FBF706FE206800F0EFFB4FF47A70FBF7FD
:104C4000FFFD4FF41670FBF7EDFB40F2DC50FBF775
:104C5000F7FD40F22D50FBF7E5FB4FF4FA70FBF740
:104C6000EFFD40F22D50FBF7DDFB40F2DC50FBF78F
:104C7000E7FD00F02FFA20604FF46170FBF7D2FBE4
:104C80004FF4FA70FBF7DCFD4FF41670FBF7CAFB2C
:104C90006420FBF7D5FD206800F09CFB6420FBF747
:104CA000CFFDFEF7C7FC6420FBF7CAFDFDF7CEFD84
:104CB0004FF47A70FBF7C4FDFFF784F84FF4FA70F5
:104CC000FBF7BEFDFEF73CFC4FF4FA70FBF7B8FDB6
:104CD000206800F0A1FB4FF47A70FBF7B1FD4FF4B0
:104CE0007A70FBF79FFB40F2DC50FBF7A9FD40F226
:104CF0004650FBF797FB40F2DC50FBF7A1FD4FF469
:104D0000E160FBF78FFB40F2DC50FBF799FD00F010
:104D1000E1F9206040F24650FBF784FB4FF4FA7053
:104D2000FBF78EFD4FF47A70FBF77CFB6420FBF7FA
:104D300087FD206800F04EFB6420FBF781FDFEF745
:104D400079FC6420FBF77CFDFDF78AFD4FF47A7057
:104D5000FBF776FDFFF736F84FF4FA70FBF770FDBE
:104D6000FEF7EEFB4FF4FA70FBF76AFD206800F0E7
:104D700053FB4FF4FA70FBF755FB4FF4FA70FBF757
:104D80005FFD40F6B100FBF74DFB00F011FD4FF465
:104D90007A70FBF755FD00F0DFFB4FF47A70FBF7FC
:104DA0004FFDFEF741FEFEF74FFF6420FBF748FD85
:104DB000FDF710FDFDF718FDFDF720FDFDF728FDBF
:104DC000FDF730FD40F6C410FBF73AFDFFF728FA77
:104DD0006420FBF735FDFEF7B3FB6420FBF730FDE5
:104DE00000F014FE00F03EFF4FF47A70FBF728FD50
:104DF00040F66600FBF716FB4FF47A70FBF720FDD8
:104E000000F068F9206040F2D660FBF70BFB4FF42E
:104E1000FA70FBF715FD4FF4AF60FBF703FB64205E
:104E2000FBF70EFD206800F0D5FA6420FBF708FDC3
:104E3000FEF700FC6420FBF703FDFDF71BFD4FF4BC
:104E40007A70FBF7FDFCFEF7BDFF4FF4FA70FBF73D
:104E5000F7FCFEF775FB4FF4FA70FBF7F1FC2068E6
:104E600000F0DAFA4FF47A70FBF7EAFC40F23A709D
:104E7000FBF7D8FA40F2DC50FBF7E2FC40F66600A4
:104E8000FBF7D0FA40F2DC50FBF7DAFC40F20D20E1
:104E9000FBF7C8FA4FF47A70FBF7D2FC00F01AF96E
:104EA000206040F66600FBF7BDFA4FF4FA70FBF79E
:104EB000C7FC40F23A70FBF7B5FA6420FBF7C0FC80
:104EC000206800F087FA6420FBF7BAFCFEF7B2FB1B
:104ED0006420FBF7B5FCFDF7D7FC4FF47A70FBF7C5
:104EE000AFFCFEF76FFF4FF4FA70FBF7A9FCFEF77B
:104EF00027FB4FF4FA70FBF7A3FC206800F08CFA54
:104F00004FF47A70FBF79CFC40F6B100FBF78AFA8D
:104F100040F2DC50FBF794FC40F29D30FBF782FA44
:104F200040F2DC50FBF78CFC00F0D4F8206040F637
:104F3000B100FBF777FA6420FBF782FC206800F0F1
:104F400049FA6420FBF77CFCFEF774FB6420FBF756
:104F500077FCFDF771FC4FF47A70FBF771FCFEF7FC
:104F600031FF4FF4FA70FBF76BFCFEF7E9FA4FF4F0
:104F7000FA70FBF765FC206800F04EFA4FF47A7087
:104F8000FBF75EFC4FF41670FBF74CFA40F2DC5076
:104F9000FBF756FC4FF46170FBF744FA4FF4FA70DC
:104FA000FBF74EFC40F22D50FBF73CFA40F2DC5090
:104FB000FBF746FC00F08EF820604FF46170FBF7C1
:104FC00031FA4FF4FA70FBF73BFC4FF41670FBF725
:104FD00029FA6420FBF734FC206800F0FBF9642018
:104FE000FBF72EFCFEF726FB6420FBF729FCFDF700
:104FF0002DFC4FF47A70FBF723FCFEF7E3FE4FF431
:10500000FA70FBF71DFCFEF79BFA4FF4FA70FBF702
:1050100017FC206800F000FA4FF47A70FBF710FCE0
:105020004FF47A70FBF7FEF940F2DC50FBF708FC16
:1050300040F24650FBF7F6F940F2DC50FBF700FC7B
:105040004FF4E160FBF7EEF940F2DC50FBF7F8FBC0
:1050500000F040F8206040F24650FBF7E3F94FF4CF
:10506000FA70FBF7EDFB4FF47A70FBF7DBF9642085
:10507000FBF7E6FB206800F0ADF96420FBF7E0FBEE
:10508000FEF7D8FA6420FBF7DBFBFDF7E9FB4FF4F2
:105090007A70FBF7D5FBFEF795FE4FF4FA70FBF73D
:1050A000CFFBFEF74DFA4FF4FA70FBF7C9FB20680F
:1050B00000F0B2F94FF4FA70FBF7B4F94FF4FA705C
:1050C000FBF7BEFB40F6B100FBF7ACF9FEF79CFF27
:1050D000FEE700002DE9F0472DED048B40F200447F
:1050E000C4F2020420464FF4804100224FF0000A2F
:1050F000FBF7B6FC20464FF400510022FBF7B0FC52
:1051000040F2CC07C2F200070A20A7F800A0FBF784
:1051100097FB40F200053888C2F200052988C0EBF1
:105120000020B0FBF1F0FF2610F47F4F18BF30468F
:105130001FFA80F8388100EE108A20464FF4804133
:105140000122B8EE408AFBF78BFC20464FF4005159
:105150000122FBF785FC0A20A7F800A0FBF770FBF3
:1051600038886988C0EB0020B0FBF1F04FF4804133
:1051700010F47F4F18BF30461FFA80F9788100EE97
:10518000109A20460022B8EE409AFBF769FC2046B0
:105190004FF400510122FBF763FC0A20A7F800A09E
:1051A000FBF74EFB3888A988C0EB0020B0FBF1F07C
:1051B000B4EE498A10F47F4F08BF0646B0B200EE45
:1051C000100AF1EE10FAB8EE400ABE810AD1B4EE30
:1051D000409AF1EE10FA05D1B7EE001AB0EE412A6E
:1051E00058E000BFB4EE498AF1EE10FA06DBB4EEE7
:1051F000408AF1EE10FAB0EE481A1DDAB4EE489A81
:10520000F1EE10FA06DBB4EE409AF1EE10FAB0EED1
:10521000491A11DAB4EE480AB0EE401A9FED672A37
:10522000F1EE10FAB8BFB0EE421AB4EE490AF1EE50
:1052300010FAB8BFB0EE421AB4EE498AF1EE10FA95
:1052400008DCB4EE408AF1EE10FA03DCB0EE482A36
:1052500020E000BFB4EE498AF1EE10FA08DBB4EEAC
:10526000409AF1EE10FA03DCB0EE492A12E000BFDA
:10527000B4EE408AB0EE402A9FED503AF1EE10FABB
:10528000B8BFB0EE432AB4EE490AF1EE10FAC8BF37
:10529000B0EE432A31EE424A30EE485A39EE403AF7
:1052A00085EE045A83EE043A38EE496A86EE044AE3
:1052B0009FED436A9FED437AB4EE491AF1EE10FA7E
:1052C000B4EE401A25EE065A23EE063A35EE075A9A
:1052D00008BFB0EE453A9FED3C5A24EE064A34EE44
:1052E000054AF1EE10FA08BFB0EE443AB4EE421AA5
:1052F0009FED324AF1EE10FA9FED341A08BFB0EE7E
:10530000443AB5EE403AF1EE10FA33EE011AB8BF66
:10531000B0EE413AB8F1970F28BFB9F1970F2BD2F1
:10532000B4EE489AF1EE10FA10DDB4EE409AF1EEC8
:1053300010FA0BDD9FED261AB4EE413AF1EE10FAA9
:1053400004DA0120BDEC048BBDE8F087B8F12C0F26
:1053500098BFB9F12C0F17D9B4EE490AF1EE10FA43
:105360001ADDB4EE480AF1EE10FA15DD0520BDECA9
:10537000048BBDE8F08700BF9628D1D90220BDEC90
:10538000048BBDE8F08700BF2D28E5D20420BDECDA
:10539000048BBDE8F08700BFB4EE408A0020F1EE38
:1053A00010FAC8BF0320B4EE498A0021F1EE10FACA
:1053B000D8BF0846BDEC048BBDE8F08700000000B4
:1053C000000070420000F042000070430000B4434F
:1053D000000048430138042888BF704780B5DFE8E3
:1053E00000F00309170F150000F03CFCBDE88040F9
:1053F000FEF71EBA00F00AFBBDE88040FEF718BABF
:1054000000F0AAF8BDE88040FEF712BA00F0D0F92B
:10541000BDE88040FEF70CBA0138042888BF704709
:10542000DFE800F004080C060A0000BF00F0C0B975
:1054300000F0ECBA00F090B800F014BC7047000027
:1054400010B50024C4F20204204608210122FBF713
:1054500007FB204610210022FBF702FB04F5006445
:10546000204610210022FBF7FBFA204620210122D2
:10547000BDE81040FBF7F4BA10B50024C4F20204F2
:10548000204608210022FBF7EBFA204610210122DA
:10549000FBF7E6FA04F50064204610210122FBF731
:1054A000DFFA204620210022BDE81040FBF7D8BAE1
:1054B00070B540F20044C4F2020420464FF480412B
:1054C00000220025FBF7CCFA20464FF400510022C1
:1054D000FBF7C6FA40F2CC06C2F200060A2035807D
:1054E000FBF7AEF930884FF480417080F0812046A0
:1054F00001223580FBF7B4FA20464FF40051012217
:10550000FBF7AEFA0A203580FBF79AF930884FF4A2
:105510008041B0803082204600223580FBF7A0FA1F
:1055200020464FF400510122FBF79AFA0A203580F9
:10553000FBF786F930884FF48041F0807082204676
:1055400001223580FBF78CFA20464FF400510022EF
:10555000BDE87040FBF784BA2DE9F04F81B040F20E
:10556000E034C2F2000440F2240A40F2244B204608
:10557000C4F2010AC4F2000BFDF7A8FD04F14805CE
:105580002846FDF7A3FD40F278061620C2F2000679
:10559000C0F21B00C6F80A00002744F6206842F259
:1055A0001079002000214DE0DBF8000081B2494570
:1055B00088BFA8EB00007080CBF80070DAF800100C
:1055C0008AB24A4588BFA8EB01013180B180CAF890
:1055D0000070F0803181FFF74FFFB6F90600B6F991
:1055E0000A1000EE100A01EE101AB8EEC00AF8EE2A
:1055F000C10A2046FDF7BCFCB6F90800B6F90C104C
:1056000000EE100A01EE101AB8EEC00AF8EEC10A58
:105610002846FDF7ADFC94ED080A94ED1A1A44F201
:105620003400BCEEC00AC4F2010080ED000ABCEEFA
:10563000C10A80ED010A3220FBF702F9FFF71CFFD7
:10564000D6E90510B6F90220B6F904301144184421
:10565000B1F5E87F7161B061D8BFB0F5E87FA3DD37
:1056600040F60040C4F202000821FBF7F3F90128DC
:105670009AD10020C6E9050001B0BDE8F04FFEF761
:10568000F9BF00002DE9F04F81B040F2E034C2F2E2
:10569000000440F2240A40F2244B2046C4F2010ADE
:1056A000C4F2000BFDF712FD04F148052846FDF792
:1056B0000DFD40F278061620C2F20006C0F21B0073
:1056C000C6F80A00002744F6206842F2107900204C
:1056D00000214DE0DBF8000081B2494588BFA8EB0E
:1056E00000007080CBF80070DAF800108AB24A45EA
:1056F00088BFA8EB01013180B180CAF80070F0804A
:105700003181FFF7B9FEB6F90600B6F90A1000EECE
:10571000100A01EE101AB8EEC00AF8EEC10A2046CF
:10572000FDF726FCB6F90800B6F90C1000EE100AD9
:1057300001EE101AB8EEC00AF8EEC10A2846FDF7CD
:1057400017FC94ED080A94ED1A1A44F23400BCEEEA
:10575000C00AC4F2010080ED000ABCEEC10A80ED6F
:10576000010A3220FBF76CF8FFF786FED6E9051038
:10577000B6F90220B6F9043011441844B1F5E17FBE
:105780007161B061B8BFB0F5E17FA3DB40F60040C6
:10579000C4F202000821FBF75DF901289AD100202C
:1057A000C6E9050001B0BDE8F04FFEF763BF000099
:1057B0002DE9F04F81B040F2E034C2F2000440F233
:1057C000240A40F2244B2046C4F2010AC4F2000B22
:1057D000FDF77CFC04F148052846FDF777FC40F214
:1057E00078061420C2F20006C0F21B00C6F80A00B8
:1057F000002744F6206842F21079002000214DE095
:10580000DBF8000081B2494588BFA8EB000070803A
:10581000CBF80070DAF800108AB24A4588BFA8EBCE
:1058200001013180B180CAF80070F0803181FFF74A
:1058300023FEB6F90600B6F90A1000EE100A01EED2
:10584000101AB8EEC00AF8EEC10A2046FDF790FB28
:10585000B6F90800B6F90C1000EE100A01EE101AA5
:10586000B8EEC00AF8EEC10A2846FDF781FB94EDB8
:10587000080A94ED1A1A44F23400BCEEC00AC4F2CD
:10588000010080ED000ABCEEC10A80ED010A322061
:10589000FAF7D6FFFFF7F0FDD6E90510B6F90220BA
:1058A000B6F9043011441844B1F5617F7161B061FB
:1058B000B8BFB0F5617FA3DB40F60040C4F2020040
:1058C0000821FBF7C7F801289AD10020C6E9050096
:1058D00001B0BDE8F04FFEF7CDBE00002DE9F04F5E
:1058E00081B040F2E034C2F2000440F2240A40F2F7
:1058F000244B2046C4F2010AC4F2000BFDF7E6FB7C
:1059000004F148052846FDF7E1FB40F27806142033
:10591000C2F20006C0F21B00C6F80A00002744F6D7
:10592000206842F210790020002156E040F6004045
:10593000C4F202000821FBF78DF801285ED0DBF8E5
:10594000000081B2494588BFA8EB00007080CBF809
:105950000070DAF800108AB24A4588BFA8EB01014E
:105960003180B180CAF80070F0803181FFF784FD8A
:10597000B6F90600B6F90A1000EE100A01EE101A88
:10598000B8EEC00AF8EEC10A2046FDF7F1FAB6F902
:105990000800B6F90C1000EE100A01EE101AB8EE6D
:1059A000C00AF8EEC10A2846FDF7E2FA94ED080AAB
:1059B00094ED1A1A44F23400BCEEC00AC4F201009D
:1059C00080ED000ABCEEC10A80ED010A3220FAF730
:1059D00037FFFFF751FDD6E90510B6F90220B6F9F9
:1059E0000430114440F2A132184491427161B06117
:1059F0009CDC40F2A2318842A1DB97E70020C6E997
:105A0000050001B0BDE8F04FFEF734BE2DE9F04FC0
:105A100081B040F2E034C2F2000440F2240A40F2C5
:105A2000244B2046C4F2010AC4F2000BFDF74EFBE2
:105A300004F148052846FDF749FB40F27806162098
:105A4000C2F20006C0F21B00C6F80A00002744F6A6
:105A5000206842F21079002000214DE0DBF80000C0
:105A600081B2494588BFA8EB00007080CBF8007078
:105A7000DAF800108AB24A4588BFA8EB01013180EC
:105A8000B180CAF80070F0803181FFF7D9FCB6F917
:105A90000600B6F90A1000EE100A01EE101AB8EE70
:105AA000C00AF8EEC10A2046FDF762FAB6F908000E
:105AB000B6F90C1000EE100A01EE101AB8EEC00A8A
:105AC000F8EEC10A2846FDF753FA94ED080A94ED62
:105AD0001A1A44F23400BCEEC00AC4F2010080ED90
